{
  "_format": "hh-sol-artifact-1",
  "contractName": "FlappyApeNFT",
  "sourceName": "contracts/FlappyApeNFT.sol",
  "abi": [
    {
      "inputs": [
        {
          "internalType": "address",
          "name": "coinAddress",
          "type": "address"
        }
      ],
      "stateMutability": "nonpayable",
      "type": "constructor"
    },
    {
      "anonymous": false,
      "inputs": [
        {
          "indexed": true,
          "internalType": "address",
          "name": "account",
          "type": "address"
        },
        {
          "indexed": true,
          "internalType": "address",
          "name": "operator",
          "type": "address"
        },
        {
          "indexed": false,
          "internalType": "bool",
          "name": "approved",
          "type": "bool"
        }
      ],
      "name": "ApprovalForAll",
      "type": "event"
    },
    {
      "anonymous": false,
      "inputs": [
        {
          "indexed": true,
          "internalType": "address",
          "name": "previousOwner",
          "type": "address"
        },
        {
          "indexed": true,
          "internalType": "address",
          "name": "newOwner",
          "type": "address"
        }
      ],
      "name": "OwnershipTransferred",
      "type": "event"
    },
    {
      "anonymous": false,
      "inputs": [
        {
          "indexed": true,
          "internalType": "address",
          "name": "operator",
          "type": "address"
        },
        {
          "indexed": true,
          "internalType": "address",
          "name": "from",
          "type": "address"
        },
        {
          "indexed": true,
          "internalType": "address",
          "name": "to",
          "type": "address"
        },
        {
          "indexed": false,
          "internalType": "uint256[]",
          "name": "ids",
          "type": "uint256[]"
        },
        {
          "indexed": false,
          "internalType": "uint256[]",
          "name": "values",
          "type": "uint256[]"
        }
      ],
      "name": "TransferBatch",
      "type": "event"
    },
    {
      "anonymous": false,
      "inputs": [
        {
          "indexed": true,
          "internalType": "address",
          "name": "operator",
          "type": "address"
        },
        {
          "indexed": true,
          "internalType": "address",
          "name": "from",
          "type": "address"
        },
        {
          "indexed": true,
          "internalType": "address",
          "name": "to",
          "type": "address"
        },
        {
          "indexed": false,
          "internalType": "uint256",
          "name": "id",
          "type": "uint256"
        },
        {
          "indexed": false,
          "internalType": "uint256",
          "name": "value",
          "type": "uint256"
        }
      ],
      "name": "TransferSingle",
      "type": "event"
    },
    {
      "anonymous": false,
      "inputs": [
        {
          "indexed": false,
          "internalType": "string",
          "name": "value",
          "type": "string"
        },
        {
          "indexed": true,
          "internalType": "uint256",
          "name": "id",
          "type": "uint256"
        }
      ],
      "name": "URI",
      "type": "event"
    },
    {
      "inputs": [
        {
          "internalType": "address",
          "name": "account",
          "type": "address"
        },
        {
          "internalType": "uint256",
          "name": "id",
          "type": "uint256"
        }
      ],
      "name": "balanceOf",
      "outputs": [
        {
          "internalType": "uint256",
          "name": "",
          "type": "uint256"
        }
      ],
      "stateMutability": "view",
      "type": "function"
    },
    {
      "inputs": [
        {
          "internalType": "address[]",
          "name": "accounts",
          "type": "address[]"
        },
        {
          "internalType": "uint256[]",
          "name": "ids",
          "type": "uint256[]"
        }
      ],
      "name": "balanceOfBatch",
      "outputs": [
        {
          "internalType": "uint256[]",
          "name": "",
          "type": "uint256[]"
        }
      ],
      "stateMutability": "view",
      "type": "function"
    },
    {
      "inputs": [
        {
          "internalType": "address",
          "name": "account",
          "type": "address"
        },
        {
          "internalType": "uint256",
          "name": "id",
          "type": "uint256"
        },
        {
          "internalType": "uint256",
          "name": "value",
          "type": "uint256"
        }
      ],
      "name": "burn",
      "outputs": [],
      "stateMutability": "nonpayable",
      "type": "function"
    },
    {
      "inputs": [
        {
          "internalType": "address",
          "name": "account",
          "type": "address"
        },
        {
          "internalType": "uint256[]",
          "name": "ids",
          "type": "uint256[]"
        },
        {
          "internalType": "uint256[]",
          "name": "values",
          "type": "uint256[]"
        }
      ],
      "name": "burnBatch",
      "outputs": [],
      "stateMutability": "nonpayable",
      "type": "function"
    },
    {
      "inputs": [
        {
          "internalType": "uint256",
          "name": "nftId",
          "type": "uint256"
        }
      ],
      "name": "calcBonus",
      "outputs": [
        {
          "internalType": "uint256",
          "name": "",
          "type": "uint256"
        }
      ],
      "stateMutability": "pure",
      "type": "function"
    },
    {
      "inputs": [
        {
          "internalType": "uint256",
          "name": "nftId",
          "type": "uint256"
        }
      ],
      "name": "calcPrice",
      "outputs": [
        {
          "internalType": "uint256",
          "name": "",
          "type": "uint256"
        }
      ],
      "stateMutability": "pure",
      "type": "function"
    },
    {
      "inputs": [
        {
          "internalType": "address",
          "name": "account",
          "type": "address"
        },
        {
          "internalType": "address",
          "name": "operator",
          "type": "address"
        }
      ],
      "name": "isApprovedForAll",
      "outputs": [
        {
          "internalType": "bool",
          "name": "",
          "type": "bool"
        }
      ],
      "stateMutability": "view",
      "type": "function"
    },
    {
      "inputs": [
        {
          "internalType": "uint256",
          "name": "points",
          "type": "uint256"
        },
        {
          "internalType": "address",
          "name": "account",
          "type": "address"
        },
        {
          "internalType": "uint256",
          "name": "nftId",
          "type": "uint256"
        }
      ],
      "name": "levelBonus",
      "outputs": [],
      "stateMutability": "nonpayable",
      "type": "function"
    },
    {
      "inputs": [],
      "name": "owner",
      "outputs": [
        {
          "internalType": "address",
          "name": "",
          "type": "address"
        }
      ],
      "stateMutability": "view",
      "type": "function"
    },
    {
      "inputs": [],
      "name": "renounceOwnership",
      "outputs": [],
      "stateMutability": "nonpayable",
      "type": "function"
    },
    {
      "inputs": [
        {
          "internalType": "address",
          "name": "from",
          "type": "address"
        },
        {
          "internalType": "address",
          "name": "to",
          "type": "address"
        },
        {
          "internalType": "uint256[]",
          "name": "ids",
          "type": "uint256[]"
        },
        {
          "internalType": "uint256[]",
          "name": "amounts",
          "type": "uint256[]"
        },
        {
          "internalType": "bytes",
          "name": "data",
          "type": "bytes"
        }
      ],
      "name": "safeBatchTransferFrom",
      "outputs": [],
      "stateMutability": "nonpayable",
      "type": "function"
    },
    {
      "inputs": [
        {
          "internalType": "address",
          "name": "from",
          "type": "address"
        },
        {
          "internalType": "address",
          "name": "to",
          "type": "address"
        },
        {
          "internalType": "uint256",
          "name": "id",
          "type": "uint256"
        },
        {
          "internalType": "uint256",
          "name": "amount",
          "type": "uint256"
        },
        {
          "internalType": "bytes",
          "name": "data",
          "type": "bytes"
        }
      ],
      "name": "safeTransferFrom",
      "outputs": [],
      "stateMutability": "nonpayable",
      "type": "function"
    },
    {
      "inputs": [
        {
          "internalType": "address",
          "name": "operator",
          "type": "address"
        },
        {
          "internalType": "bool",
          "name": "approved",
          "type": "bool"
        }
      ],
      "name": "setApprovalForAll",
      "outputs": [],
      "stateMutability": "nonpayable",
      "type": "function"
    },
    {
      "inputs": [
        {
          "internalType": "string",
          "name": "newuri",
          "type": "string"
        }
      ],
      "name": "setURI",
      "outputs": [],
      "stateMutability": "nonpayable",
      "type": "function"
    },
    {
      "inputs": [
        {
          "internalType": "bytes4",
          "name": "interfaceId",
          "type": "bytes4"
        }
      ],
      "name": "supportsInterface",
      "outputs": [
        {
          "internalType": "bool",
          "name": "",
          "type": "bool"
        }
      ],
      "stateMutability": "view",
      "type": "function"
    },
    {
      "inputs": [
        {
          "internalType": "address",
          "name": "newOwner",
          "type": "address"
        }
      ],
      "name": "transferOwnership",
      "outputs": [],
      "stateMutability": "nonpayable",
      "type": "function"
    },
    {
      "inputs": [
        {
          "internalType": "uint256",
          "name": "nftId",
          "type": "uint256"
        }
      ],
      "name": "upgrade",
      "outputs": [],
      "stateMutability": "nonpayable",
      "type": "function"
    },
    {
      "inputs": [
        {
          "internalType": "uint256",
          "name": "",
          "type": "uint256"
        }
      ],
      "name": "uri",
      "outputs": [
        {
          "internalType": "string",
          "name": "",
          "type": "string"
        }
      ],
      "stateMutability": "view",
      "type": "function"
    }
  ],
  "bytecode": "0x60806040523480156200001157600080fd5b506040516200435338038062004353833981810160405281019062000037919062000298565b6040518060400160405280602081526020017f68747470733a2f2f666c617070796170652e696f2f746f6b656e732f7b69647d8152506200007e81620000e760201b60201c565b506200009f620000936200010360201b60201c565b6200010b60201b60201c565b80600460006101000a81548173ffffffffffffffffffffffffffffffffffffffff021916908373ffffffffffffffffffffffffffffffffffffffff1602179055505062000377565b8060029080519060200190620000ff929190620001d1565b5050565b600033905090565b6000600360009054906101000a900473ffffffffffffffffffffffffffffffffffffffff16905081600360006101000a81548173ffffffffffffffffffffffffffffffffffffffff021916908373ffffffffffffffffffffffffffffffffffffffff1602179055508173ffffffffffffffffffffffffffffffffffffffff168173ffffffffffffffffffffffffffffffffffffffff167f8be0079c531659141344cd1fd0a4f28419497f9722a3daafe3b4186f6b6457e060405160405180910390a35050565b828054620001df90620002f8565b90600052602060002090601f0160209004810192826200020357600085556200024f565b82601f106200021e57805160ff19168380011785556200024f565b828001600101855582156200024f579182015b828111156200024e57825182559160200191906001019062000231565b5b5090506200025e919062000262565b5090565b5b808211156200027d57600081600090555060010162000263565b5090565b60008151905062000292816200035d565b92915050565b600060208284031215620002ab57600080fd5b6000620002bb8482850162000281565b91505092915050565b6000620002d182620002d8565b9050919050565b600073ffffffffffffffffffffffffffffffffffffffff82169050919050565b600060028204905060018216806200031157607f821691505b602082108114156200032857620003276200032e565b5b50919050565b7f4e487b7100000000000000000000000000000000000000000000000000000000600052602260045260246000fd5b6200036881620002c4565b81146200037457600080fd5b50565b613fcc80620003876000396000f3fe608060405234801561001057600080fd5b50600436106101155760003560e01c80636b20c454116100a2578063b55a669f11610071578063b55a669f146102ee578063e985e9c51461030a578063f242432a1461033a578063f2fde38b14610356578063f5298aca1461037257610115565b80636b20c4541461028e578063715018a6146102aa5780638da5cb5b146102b4578063a22cb465146102d257610115565b80630e89341c116100e95780630e89341c146101c657806320b92bf6146101f65780632eb2c2d61461022657806345977d03146102425780634e1273f41461025e57610115565b8062fdd58e1461011a57806301ffc9a71461014a57806302fe53051461017a57806309f3ad2614610196575b600080fd5b610134600480360381019061012f9190612a62565b61038e565b60405161014191906133c0565b60405180910390f35b610164600480360381019061015f9190612b59565b610457565b6040516101719190613163565b60405180910390f35b610194600480360381019061018f9190612bab565b610539565b005b6101b060048036038101906101ab9190612bec565b6105c1565b6040516101bd91906133c0565b60405180910390f35b6101e060048036038101906101db9190612bec565b6105d7565b6040516101ed919061317e565b60405180910390f35b610210600480360381019061020b9190612bec565b61066b565b60405161021d91906133c0565b60405180910390f35b610240600480360381019061023b9190612859565b610694565b005b61025c60048036038101906102579190612bec565b610735565b005b61027860048036038101906102739190612aed565b610960565b604051610285919061310a565b60405180910390f35b6102a860048036038101906102a391906129a7565b610b11565b005b6102b2610bae565b005b6102bc610c36565b6040516102c99190613004565b60405180910390f35b6102ec60048036038101906102e79190612a26565b610c60565b005b61030860048036038101906103039190612c3e565b610c76565b005b610324600480360381019061031f919061281d565b610e0d565b6040516103319190613163565b60405180910390f35b610354600480360381019061034f9190612918565b610ea1565b005b610370600480360381019061036b91906127f4565b610f42565b005b61038c60048036038101906103879190612a9e565b61103a565b005b60008073ffffffffffffffffffffffffffffffffffffffff168373ffffffffffffffffffffffffffffffffffffffff1614156103ff576040517f08c379a00000000000000000000000000000000000000000000000000000000081526004016103f6906131e0565b60405180910390fd5b60008083815260200190815260200160002060008473ffffffffffffffffffffffffffffffffffffffff1673ffffffffffffffffffffffffffffffffffffffff16815260200190815260200160002054905092915050565b60007fd9b67a26000000000000000000000000000000000000000000000000000000007bffffffffffffffffffffffffffffffffffffffffffffffffffffffff1916827bffffffffffffffffffffffffffffffffffffffffffffffffffffffff1916148061052257507f0e89341c000000000000000000000000000000000000000000000000000000007bffffffffffffffffffffffffffffffffffffffffffffffffffffffff1916827bffffffffffffffffffffffffffffffffffffffffffffffffffffffff1916145b806105325750610531826110d7565b5b9050919050565b610541611141565b73ffffffffffffffffffffffffffffffffffffffff1661055f610c36565b73ffffffffffffffffffffffffffffffffffffffff16146105b5576040517f08c379a00000000000000000000000000000000000000000000000000000000081526004016105ac906132e0565b60405180910390fd5b6105be81611149565b50565b60008160026105d091906135fd565b9050919050565b6060600280546105e69061382b565b80601f01602080910402602001604051908101604052809291908181526020018280546106129061382b565b801561065f5780601f106106345761010080835404028352916020019161065f565b820191906000526020600020905b81548152906001019060200180831161064257829003601f168201915b50505050509050919050565b6000678ac7230489e8000082600361068391906135fd565b61068d919061371b565b9050919050565b61069c611141565b73ffffffffffffffffffffffffffffffffffffffff168573ffffffffffffffffffffffffffffffffffffffff1614806106e257506106e1856106dc611141565b610e0d565b5b610721576040517f08c379a000000000000000000000000000000000000000000000000000000000815260040161071890613280565b60405180910390fd5b61072e8585858585611163565b5050505050565b8033600082148061074f5750600061074d828461038e565b115b61078e576040517f08c379a0000000000000000000000000000000000000000000000000000000008152600401610785906133a0565b60405180910390fd5b600060018461079d9190613554565b905060006107aa8261066b565b905080600460009054906101000a900473ffffffffffffffffffffffffffffffffffffffff1673ffffffffffffffffffffffffffffffffffffffff166370a08231336040518263ffffffff1660e01b81526004016108089190613004565b60206040518083038186803b15801561082057600080fd5b505afa158015610834573d6000803e3d6000fd5b505050506040513d601f19601f820116820180604052508101906108589190612c15565b1015610899576040517f08c379a000000000000000000000000000000000000000000000000000000000815260040161089090613300565b60405180910390fd5b600460009054906101000a900473ffffffffffffffffffffffffffffffffffffffff1673ffffffffffffffffffffffffffffffffffffffff166379cc679033836040518363ffffffff1660e01b81526004016108f69291906130e1565b600060405180830381600087803b15801561091057600080fd5b505af1158015610924573d6000803e3d6000fd5b505050506000851461093d5761093c338660016114c3565b5b61095933836001604051806020016040528060008152506116e0565b5050505050565b606081518351146109a6576040517f08c379a000000000000000000000000000000000000000000000000000000000815260040161099d90613340565b60405180910390fd5b6000835167ffffffffffffffff8111156109e9577f4e487b7100000000000000000000000000000000000000000000000000000000600052604160045260246000fd5b604051908082528060200260200182016040528015610a175781602001602082028036833780820191505090505b50905060005b8451811015610b0657610ab0858281518110610a62577f4e487b7100000000000000000000000000000000000000000000000000000000600052603260045260246000fd5b6020026020010151858381518110610aa3577f4e487b7100000000000000000000000000000000000000000000000000000000600052603260045260246000fd5b602002602001015161038e565b828281518110610ae9577f4e487b7100000000000000000000000000000000000000000000000000000000600052603260045260246000fd5b60200260200101818152505080610aff9061388e565b9050610a1d565b508091505092915050565b610b19611141565b73ffffffffffffffffffffffffffffffffffffffff168373ffffffffffffffffffffffffffffffffffffffff161480610b5f5750610b5e83610b59611141565b610e0d565b5b610b9e576040517f08c379a0000000000000000000000000000000000000000000000000000000008152600401610b9590613240565b60405180910390fd5b610ba9838383611876565b505050565b610bb6611141565b73ffffffffffffffffffffffffffffffffffffffff16610bd4610c36565b73ffffffffffffffffffffffffffffffffffffffff1614610c2a576040517f08c379a0000000000000000000000000000000000000000000000000000000008152600401610c21906132e0565b60405180910390fd5b610c346000611b73565b565b6000600360009054906101000a900473ffffffffffffffffffffffffffffffffffffffff16905090565b610c72610c6b611141565b8383611c39565b5050565b610c7e611141565b73ffffffffffffffffffffffffffffffffffffffff16610c9c610c36565b73ffffffffffffffffffffffffffffffffffffffff1614610cf2576040517f08c379a0000000000000000000000000000000000000000000000000000000008152600401610ce9906132e0565b60405180910390fd5b80826000821480610d0c57506000610d0a828461038e565b115b610d4b576040517f08c379a0000000000000000000000000000000000000000000000000000000008152600401610d42906133a0565b60405180910390fd5b6000670de0b6b3a7640000610d5f856105c1565b87610d6a919061371b565b610d74919061371b565b9050600460009054906101000a900473ffffffffffffffffffffffffffffffffffffffff1673ffffffffffffffffffffffffffffffffffffffff166340c10f1986836040518363ffffffff1660e01b8152600401610dd39291906130e1565b600060405180830381600087803b158015610ded57600080fd5b505af1158015610e01573d6000803e3d6000fd5b50505050505050505050565b6000600160008473ffffffffffffffffffffffffffffffffffffffff1673ffffffffffffffffffffffffffffffffffffffff16815260200190815260200160002060008373ffffffffffffffffffffffffffffffffffffffff1673ffffffffffffffffffffffffffffffffffffffff16815260200190815260200160002060009054906101000a900460ff16905092915050565b610ea9611141565b73ffffffffffffffffffffffffffffffffffffffff168573ffffffffffffffffffffffffffffffffffffffff161480610eef5750610eee85610ee9611141565b610e0d565b5b610f2e576040517f08c379a0000000000000000000000000000000000000000000000000000000008152600401610f2590613240565b60405180910390fd5b610f3b8585858585611da6565b5050505050565b610f4a611141565b73ffffffffffffffffffffffffffffffffffffffff16610f68610c36565b73ffffffffffffffffffffffffffffffffffffffff1614610fbe576040517f08c379a0000000000000000000000000000000000000000000000000000000008152600401610fb5906132e0565b60405180910390fd5b600073ffffffffffffffffffffffffffffffffffffffff168173ffffffffffffffffffffffffffffffffffffffff16141561102e576040517f08c379a000000000000000000000000000000000000000000000000000000000815260040161102590613200565b60405180910390fd5b61103781611b73565b50565b611042611141565b73ffffffffffffffffffffffffffffffffffffffff168373ffffffffffffffffffffffffffffffffffffffff161480611088575061108783611082611141565b610e0d565b5b6110c7576040517f08c379a00000000000000000000000000000000000000000000000000000000081526004016110be90613240565b60405180910390fd5b6110d28383836114c3565b505050565b60007f01ffc9a7000000000000000000000000000000000000000000000000000000007bffffffffffffffffffffffffffffffffffffffffffffffffffffffff1916827bffffffffffffffffffffffffffffffffffffffffffffffffffffffff1916149050919050565b600033905090565b806002908051906020019061115f9291906124d7565b5050565b81518351146111a7576040517f08c379a000000000000000000000000000000000000000000000000000000000815260040161119e90613360565b60405180910390fd5b600073ffffffffffffffffffffffffffffffffffffffff168473ffffffffffffffffffffffffffffffffffffffff161415611217576040517f08c379a000000000000000000000000000000000000000000000000000000000815260040161120e90613260565b60405180910390fd5b6000611221611141565b9050611231818787878787612028565b60005b845181101561142e576000858281518110611278577f4e487b7100000000000000000000000000000000000000000000000000000000600052603260045260246000fd5b6020026020010151905060008583815181106112bd577f4e487b7100000000000000000000000000000000000000000000000000000000600052603260045260246000fd5b60200260200101519050600080600084815260200190815260200160002060008b73ffffffffffffffffffffffffffffffffffffffff1673ffffffffffffffffffffffffffffffffffffffff1681526020019081526020016000205490508181101561135e576040517f08c379a0000000000000000000000000000000000000000000000000000000008152600401611355906132c0565b60405180910390fd5b81810360008085815260200190815260200160002060008c73ffffffffffffffffffffffffffffffffffffffff1673ffffffffffffffffffffffffffffffffffffffff168152602001908152602001600020819055508160008085815260200190815260200160002060008b73ffffffffffffffffffffffffffffffffffffffff1673ffffffffffffffffffffffffffffffffffffffff16815260200190815260200160002060008282546114139190613554565b92505081905550505050806114279061388e565b9050611234565b508473ffffffffffffffffffffffffffffffffffffffff168673ffffffffffffffffffffffffffffffffffffffff168273ffffffffffffffffffffffffffffffffffffffff167f4a39dc06d4c0dbc64b70af90fd698a233a518aa5d07e595d983b8c0526c8f7fb87876040516114a592919061312c565b60405180910390a46114bb818787878787612030565b505050505050565b600073ffffffffffffffffffffffffffffffffffffffff168373ffffffffffffffffffffffffffffffffffffffff161415611533576040517f08c379a000000000000000000000000000000000000000000000000000000000815260040161152a906132a0565b60405180910390fd5b600061153d611141565b905061156d8185600061154f87612217565b61155887612217565b60405180602001604052806000815250612028565b600080600085815260200190815260200160002060008673ffffffffffffffffffffffffffffffffffffffff1673ffffffffffffffffffffffffffffffffffffffff16815260200190815260200160002054905082811015611604576040517f08c379a00000000000000000000000000000000000000000000000000000000081526004016115fb90613220565b60405180910390fd5b82810360008086815260200190815260200160002060008773ffffffffffffffffffffffffffffffffffffffff1673ffffffffffffffffffffffffffffffffffffffff16815260200190815260200160002081905550600073ffffffffffffffffffffffffffffffffffffffff168573ffffffffffffffffffffffffffffffffffffffff168373ffffffffffffffffffffffffffffffffffffffff167fc3d58168c5ae7397731d063d5bbf3d657854427343f4c083240f7aacaa2d0f6287876040516116d19291906133db565b60405180910390a45050505050565b600073ffffffffffffffffffffffffffffffffffffffff168473ffffffffffffffffffffffffffffffffffffffff161415611750576040517f08c379a000000000000000000000000000000000000000000000000000000000815260040161174790613380565b60405180910390fd5b600061175a611141565b905061177b8160008761176c88612217565b61177588612217565b87612028565b8260008086815260200190815260200160002060008773ffffffffffffffffffffffffffffffffffffffff1673ffffffffffffffffffffffffffffffffffffffff16815260200190815260200160002060008282546117da9190613554565b925050819055508473ffffffffffffffffffffffffffffffffffffffff16600073ffffffffffffffffffffffffffffffffffffffff168273ffffffffffffffffffffffffffffffffffffffff167fc3d58168c5ae7397731d063d5bbf3d657854427343f4c083240f7aacaa2d0f6287876040516118589291906133db565b60405180910390a461186f816000878787876122dd565b5050505050565b600073ffffffffffffffffffffffffffffffffffffffff168373ffffffffffffffffffffffffffffffffffffffff1614156118e6576040517f08c379a00000000000000000000000000000000000000000000000000000000081526004016118dd906132a0565b60405180910390fd5b805182511461192a576040517f08c379a000000000000000000000000000000000000000000000000000000000815260040161192190613360565b60405180910390fd5b6000611934611141565b905061195481856000868660405180602001604052806000815250612028565b60005b8351811015611aed57600084828151811061199b577f4e487b7100000000000000000000000000000000000000000000000000000000600052603260045260246000fd5b6020026020010151905060008483815181106119e0577f4e487b7100000000000000000000000000000000000000000000000000000000600052603260045260246000fd5b60200260200101519050600080600084815260200190815260200160002060008973ffffffffffffffffffffffffffffffffffffffff1673ffffffffffffffffffffffffffffffffffffffff16815260200190815260200160002054905081811015611a81576040517f08c379a0000000000000000000000000000000000000000000000000000000008152600401611a7890613220565b60405180910390fd5b81810360008085815260200190815260200160002060008a73ffffffffffffffffffffffffffffffffffffffff1673ffffffffffffffffffffffffffffffffffffffff168152602001908152602001600020819055505050508080611ae59061388e565b915050611957565b50600073ffffffffffffffffffffffffffffffffffffffff168473ffffffffffffffffffffffffffffffffffffffff168273ffffffffffffffffffffffffffffffffffffffff167f4a39dc06d4c0dbc64b70af90fd698a233a518aa5d07e595d983b8c0526c8f7fb8686604051611b6592919061312c565b60405180910390a450505050565b6000600360009054906101000a900473ffffffffffffffffffffffffffffffffffffffff16905081600360006101000a81548173ffffffffffffffffffffffffffffffffffffffff021916908373ffffffffffffffffffffffffffffffffffffffff1602179055508173ffffffffffffffffffffffffffffffffffffffff168173ffffffffffffffffffffffffffffffffffffffff167f8be0079c531659141344cd1fd0a4f28419497f9722a3daafe3b4186f6b6457e060405160405180910390a35050565b8173ffffffffffffffffffffffffffffffffffffffff168373ffffffffffffffffffffffffffffffffffffffff161415611ca8576040517f08c379a0000000000000000000000000000000000000000000000000000000008152600401611c9f90613320565b60405180910390fd5b80600160008573ffffffffffffffffffffffffffffffffffffffff1673ffffffffffffffffffffffffffffffffffffffff16815260200190815260200160002060008473ffffffffffffffffffffffffffffffffffffffff1673ffffffffffffffffffffffffffffffffffffffff16815260200190815260200160002060006101000a81548160ff0219169083151502179055508173ffffffffffffffffffffffffffffffffffffffff168373ffffffffffffffffffffffffffffffffffffffff167f17307eab39ab6107e8899845ad3d59bd9653f200f220920489ca2b5937696c3183604051611d999190613163565b60405180910390a3505050565b600073ffffffffffffffffffffffffffffffffffffffff168473ffffffffffffffffffffffffffffffffffffffff161415611e16576040517f08c379a0000000000000000000000000000000000000000000000000000000008152600401611e0d90613260565b60405180910390fd5b6000611e20611141565b9050611e40818787611e3188612217565b611e3a88612217565b87612028565b600080600086815260200190815260200160002060008873ffffffffffffffffffffffffffffffffffffffff1673ffffffffffffffffffffffffffffffffffffffff16815260200190815260200160002054905083811015611ed7576040517f08c379a0000000000000000000000000000000000000000000000000000000008152600401611ece906132c0565b60405180910390fd5b83810360008087815260200190815260200160002060008973ffffffffffffffffffffffffffffffffffffffff1673ffffffffffffffffffffffffffffffffffffffff168152602001908152602001600020819055508360008087815260200190815260200160002060008873ffffffffffffffffffffffffffffffffffffffff1673ffffffffffffffffffffffffffffffffffffffff1681526020019081526020016000206000828254611f8c9190613554565b925050819055508573ffffffffffffffffffffffffffffffffffffffff168773ffffffffffffffffffffffffffffffffffffffff168373ffffffffffffffffffffffffffffffffffffffff167fc3d58168c5ae7397731d063d5bbf3d657854427343f4c083240f7aacaa2d0f6288886040516120099291906133db565b60405180910390a461201f8288888888886122dd565b50505050505050565b505050505050565b61204f8473ffffffffffffffffffffffffffffffffffffffff166124c4565b1561220f578373ffffffffffffffffffffffffffffffffffffffff1663bc197c8187878686866040518663ffffffff1660e01b815260040161209595949392919061301f565b602060405180830381600087803b1580156120af57600080fd5b505af19250505080156120e057506040513d601f19601f820116820180604052508101906120dd9190612b82565b60015b612186576120ec613964565b806308c379a014156121495750612101613ea4565b8061210c575061214b565b806040517f08c379a0000000000000000000000000000000000000000000000000000000008152600401612140919061317e565b60405180910390fd5b505b6040517f08c379a000000000000000000000000000000000000000000000000000000000815260040161217d906131a0565b60405180910390fd5b63bc197c8160e01b7bffffffffffffffffffffffffffffffffffffffffffffffffffffffff1916817bffffffffffffffffffffffffffffffffffffffffffffffffffffffff19161461220d576040517f08c379a0000000000000000000000000000000000000000000000000000000008152600401612204906131c0565b60405180910390fd5b505b505050505050565b60606000600167ffffffffffffffff81111561225c577f4e487b7100000000000000000000000000000000000000000000000000000000600052604160045260246000fd5b60405190808252806020026020018201604052801561228a5781602001602082028036833780820191505090505b50905082816000815181106122c8577f4e487b7100000000000000000000000000000000000000000000000000000000600052603260045260246000fd5b60200260200101818152505080915050919050565b6122fc8473ffffffffffffffffffffffffffffffffffffffff166124c4565b156124bc578373ffffffffffffffffffffffffffffffffffffffff1663f23a6e6187878686866040518663ffffffff1660e01b8152600401612342959493929190613087565b602060405180830381600087803b15801561235c57600080fd5b505af192505050801561238d57506040513d601f19601f8201168201806040525081019061238a9190612b82565b60015b61243357612399613964565b806308c379a014156123f657506123ae613ea4565b806123b957506123f8565b806040517f08c379a00000000000000000000000000000000000000000000000000000000081526004016123ed919061317e565b60405180910390fd5b505b6040517f08c379a000000000000000000000000000000000000000000000000000000000815260040161242a906131a0565b60405180910390fd5b63f23a6e6160e01b7bffffffffffffffffffffffffffffffffffffffffffffffffffffffff1916817bffffffffffffffffffffffffffffffffffffffffffffffffffffffff1916146124ba576040517f08c379a00000000000000000000000000000000000000000000000000000000081526004016124b1906131c0565b60405180910390fd5b505b505050505050565b600080823b905060008111915050919050565b8280546124e39061382b565b90600052602060002090601f016020900481019282612505576000855561254c565b82601f1061251e57805160ff191683800117855561254c565b8280016001018555821561254c579182015b8281111561254b578251825591602001919060010190612530565b5b509050612559919061255d565b5090565b5b8082111561257657600081600090555060010161255e565b5090565b600061258d61258884613429565b613404565b905080838252602082019050828560208602820111156125ac57600080fd5b60005b858110156125dc57816125c288826126ce565b8452602084019350602083019250506001810190506125af565b5050509392505050565b60006125f96125f484613455565b613404565b9050808382526020820190508285602086028201111561261857600080fd5b60005b85811015612648578161262e88826127ca565b84526020840193506020830192505060018101905061261b565b5050509392505050565b600061266561266084613481565b613404565b90508281526020810184848401111561267d57600080fd5b6126888482856137e9565b509392505050565b60006126a361269e846134b2565b613404565b9050828152602081018484840111156126bb57600080fd5b6126c68482856137e9565b509392505050565b6000813590506126dd81613f3a565b92915050565b600082601f8301126126f457600080fd5b813561270484826020860161257a565b91505092915050565b600082601f83011261271e57600080fd5b813561272e8482602086016125e6565b91505092915050565b60008135905061274681613f51565b92915050565b60008135905061275b81613f68565b92915050565b60008151905061277081613f68565b92915050565b600082601f83011261278757600080fd5b8135612797848260208601612652565b91505092915050565b600082601f8301126127b157600080fd5b81356127c1848260208601612690565b91505092915050565b6000813590506127d981613f7f565b92915050565b6000815190506127ee81613f7f565b92915050565b60006020828403121561280657600080fd5b6000612814848285016126ce565b91505092915050565b6000806040838503121561283057600080fd5b600061283e858286016126ce565b925050602061284f858286016126ce565b9150509250929050565b600080600080600060a0868803121561287157600080fd5b600061287f888289016126ce565b9550506020612890888289016126ce565b945050604086013567ffffffffffffffff8111156128ad57600080fd5b6128b98882890161270d565b935050606086013567ffffffffffffffff8111156128d657600080fd5b6128e28882890161270d565b925050608086013567ffffffffffffffff8111156128ff57600080fd5b61290b88828901612776565b9150509295509295909350565b600080600080600060a0868803121561293057600080fd5b600061293e888289016126ce565b955050602061294f888289016126ce565b9450506040612960888289016127ca565b9350506060612971888289016127ca565b925050608086013567ffffffffffffffff81111561298e57600080fd5b61299a88828901612776565b9150509295509295909350565b6000806000606084860312156129bc57600080fd5b60006129ca868287016126ce565b935050602084013567ffffffffffffffff8111156129e757600080fd5b6129f38682870161270d565b925050604084013567ffffffffffffffff811115612a1057600080fd5b612a1c8682870161270d565b9150509250925092565b60008060408385031215612a3957600080fd5b6000612a47858286016126ce565b9250506020612a5885828601612737565b9150509250929050565b60008060408385031215612a7557600080fd5b6000612a83858286016126ce565b9250506020612a94858286016127ca565b9150509250929050565b600080600060608486031215612ab357600080fd5b6000612ac1868287016126ce565b9350506020612ad2868287016127ca565b9250506040612ae3868287016127ca565b9150509250925092565b60008060408385031215612b0057600080fd5b600083013567ffffffffffffffff811115612b1a57600080fd5b612b26858286016126e3565b925050602083013567ffffffffffffffff811115612b4357600080fd5b612b4f8582860161270d565b9150509250929050565b600060208284031215612b6b57600080fd5b6000612b798482850161274c565b91505092915050565b600060208284031215612b9457600080fd5b6000612ba284828501612761565b91505092915050565b600060208284031215612bbd57600080fd5b600082013567ffffffffffffffff811115612bd757600080fd5b612be3848285016127a0565b91505092915050565b600060208284031215612bfe57600080fd5b6000612c0c848285016127ca565b91505092915050565b600060208284031215612c2757600080fd5b6000612c35848285016127df565b91505092915050565b600080600060608486031215612c5357600080fd5b6000612c61868287016127ca565b9350506020612c72868287016126ce565b9250506040612c83868287016127ca565b9150509250925092565b6000612c998383612fe6565b60208301905092915050565b612cae81613775565b82525050565b6000612cbf826134f3565b612cc98185613521565b9350612cd4836134e3565b8060005b83811015612d05578151612cec8882612c8d565b9750612cf783613514565b925050600181019050612cd8565b5085935050505092915050565b612d1b81613787565b82525050565b6000612d2c826134fe565b612d368185613532565b9350612d468185602086016137f8565b612d4f81613986565b840191505092915050565b6000612d6582613509565b612d6f8185613543565b9350612d7f8185602086016137f8565b612d8881613986565b840191505092915050565b6000612da0603483613543565b9150612dab826139b1565b604082019050919050565b6000612dc3602883613543565b9150612dce82613a00565b604082019050919050565b6000612de6602b83613543565b9150612df182613a4f565b604082019050919050565b6000612e09602683613543565b9150612e1482613a9e565b604082019050919050565b6000612e2c602483613543565b9150612e3782613aed565b604082019050919050565b6000612e4f602983613543565b9150612e5a82613b3c565b604082019050919050565b6000612e72602583613543565b9150612e7d82613b8b565b604082019050919050565b6000612e95603283613543565b9150612ea082613bda565b604082019050919050565b6000612eb8602383613543565b9150612ec382613c29565b604082019050919050565b6000612edb602a83613543565b9150612ee682613c78565b604082019050919050565b6000612efe602083613543565b9150612f0982613cc7565b602082019050919050565b6000612f21602883613543565b9150612f2c82613cf0565b604082019050919050565b6000612f44602983613543565b9150612f4f82613d3f565b604082019050919050565b6000612f67602983613543565b9150612f7282613d8e565b604082019050919050565b6000612f8a602883613543565b9150612f9582613ddd565b604082019050919050565b6000612fad602183613543565b9150612fb882613e2c565b604082019050919050565b6000612fd0601983613543565b9150612fdb82613e7b565b602082019050919050565b612fef816137df565b82525050565b612ffe816137df565b82525050565b60006020820190506130196000830184612ca5565b92915050565b600060a0820190506130346000830188612ca5565b6130416020830187612ca5565b81810360408301526130538186612cb4565b905081810360608301526130678185612cb4565b9050818103608083015261307b8184612d21565b90509695505050505050565b600060a08201905061309c6000830188612ca5565b6130a96020830187612ca5565b6130b66040830186612ff5565b6130c36060830185612ff5565b81810360808301526130d58184612d21565b90509695505050505050565b60006040820190506130f66000830185612ca5565b6131036020830184612ff5565b9392505050565b600060208201905081810360008301526131248184612cb4565b905092915050565b600060408201905081810360008301526131468185612cb4565b9050818103602083015261315a8184612cb4565b90509392505050565b60006020820190506131786000830184612d12565b92915050565b600060208201905081810360008301526131988184612d5a565b905092915050565b600060208201905081810360008301526131b981612d93565b9050919050565b600060208201905081810360008301526131d981612db6565b9050919050565b600060208201905081810360008301526131f981612dd9565b9050919050565b6000602082019050818103600083015261321981612dfc565b9050919050565b6000602082019050818103600083015261323981612e1f565b9050919050565b6000602082019050818103600083015261325981612e42565b9050919050565b6000602082019050818103600083015261327981612e65565b9050919050565b6000602082019050818103600083015261329981612e88565b9050919050565b600060208201905081810360008301526132b981612eab565b9050919050565b600060208201905081810360008301526132d981612ece565b9050919050565b600060208201905081810360008301526132f981612ef1565b9050919050565b6000602082019050818103600083015261331981612f14565b9050919050565b6000602082019050818103600083015261333981612f37565b9050919050565b6000602082019050818103600083015261335981612f5a565b9050919050565b6000602082019050818103600083015261337981612f7d565b9050919050565b6000602082019050818103600083015261339981612fa0565b9050919050565b600060208201905081810360008301526133b981612fc3565b9050919050565b60006020820190506133d56000830184612ff5565b92915050565b60006040820190506133f06000830185612ff5565b6133fd6020830184612ff5565b9392505050565b600061340e61341f565b905061341a828261385d565b919050565b6000604051905090565b600067ffffffffffffffff82111561344457613443613935565b5b602082029050602081019050919050565b600067ffffffffffffffff8211156134705761346f613935565b5b602082029050602081019050919050565b600067ffffffffffffffff82111561349c5761349b613935565b5b6134a582613986565b9050602081019050919050565b600067ffffffffffffffff8211156134cd576134cc613935565b5b6134d682613986565b9050602081019050919050565b6000819050602082019050919050565b600081519050919050565b600081519050919050565b600081519050919050565b6000602082019050919050565b600082825260208201905092915050565b600082825260208201905092915050565b600082825260208201905092915050565b600061355f826137df565b915061356a836137df565b9250827fffffffffffffffffffffffffffffffffffffffffffffffffffffffffffffffff0382111561359f5761359e6138d7565b5b828201905092915050565b6000808291508390505b60018511156135f4578086048111156135d0576135cf6138d7565b5b60018516156135df5780820291505b80810290506135ed85613997565b94506135b4565b94509492505050565b6000613608826137df565b9150613613836137df565b92506136407fffffffffffffffffffffffffffffffffffffffffffffffffffffffffffffffff8484613648565b905092915050565b6000826136585760019050613714565b816136665760009050613714565b816001811461367c5760028114613686576136b5565b6001915050613714565b60ff841115613698576136976138d7565b5b8360020a9150848211156136af576136ae6138d7565b5b50613714565b5060208310610133831016604e8410600b84101617156136ea5782820a9050838111156136e5576136e46138d7565b5b613714565b6136f784848460016135aa565b9250905081840481111561370e5761370d6138d7565b5b81810290505b9392505050565b6000613726826137df565b9150613731836137df565b9250817fffffffffffffffffffffffffffffffffffffffffffffffffffffffffffffffff048311821515161561376a576137696138d7565b5b828202905092915050565b6000613780826137bf565b9050919050565b60008115159050919050565b60007fffffffff0000000000000000000000000000000000000000000000000000000082169050919050565b600073ffffffffffffffffffffffffffffffffffffffff82169050919050565b6000819050919050565b82818337600083830152505050565b60005b838110156138165780820151818401526020810190506137fb565b83811115613825576000848401525b50505050565b6000600282049050600182168061384357607f821691505b6020821081141561385757613856613906565b5b50919050565b61386682613986565b810181811067ffffffffffffffff8211171561388557613884613935565b5b80604052505050565b6000613899826137df565b91507fffffffffffffffffffffffffffffffffffffffffffffffffffffffffffffffff8214156138cc576138cb6138d7565b5b600182019050919050565b7f4e487b7100000000000000000000000000000000000000000000000000000000600052601160045260246000fd5b7f4e487b7100000000000000000000000000000000000000000000000000000000600052602260045260246000fd5b7f4e487b7100000000000000000000000000000000000000000000000000000000600052604160045260246000fd5b600060033d11156139835760046000803e6139806000516139a4565b90505b90565b6000601f19601f8301169050919050565b60008160011c9050919050565b60008160e01c9050919050565b7f455243313135353a207472616e7366657220746f206e6f6e204552433131353560008201527f526563656976657220696d706c656d656e746572000000000000000000000000602082015250565b7f455243313135353a204552433131353552656365697665722072656a6563746560008201527f6420746f6b656e73000000000000000000000000000000000000000000000000602082015250565b7f455243313135353a2062616c616e636520717565727920666f7220746865207a60008201527f65726f2061646472657373000000000000000000000000000000000000000000602082015250565b7f4f776e61626c653a206e6577206f776e657220697320746865207a65726f206160008201527f6464726573730000000000000000000000000000000000000000000000000000602082015250565b7f455243313135353a206275726e20616d6f756e7420657863656564732062616c60008201527f616e636500000000000000000000000000000000000000000000000000000000602082015250565b7f455243313135353a2063616c6c6572206973206e6f74206f776e6572206e6f7260008201527f20617070726f7665640000000000000000000000000000000000000000000000602082015250565b7f455243313135353a207472616e7366657220746f20746865207a65726f20616460008201527f6472657373000000000000000000000000000000000000000000000000000000602082015250565b7f455243313135353a207472616e736665722063616c6c6572206973206e6f742060008201527f6f776e6572206e6f7220617070726f7665640000000000000000000000000000602082015250565b7f455243313135353a206275726e2066726f6d20746865207a65726f206164647260008201527f6573730000000000000000000000000000000000000000000000000000000000602082015250565b7f455243313135353a20696e73756666696369656e742062616c616e636520666f60008201527f72207472616e7366657200000000000000000000000000000000000000000000602082015250565b7f4f776e61626c653a2063616c6c6572206973206e6f7420746865206f776e6572600082015250565b7f5573657220646f65736e2774206861766520656e6f75676820466c617070792060008201527f41706520436f696e000000000000000000000000000000000000000000000000602082015250565b7f455243313135353a2073657474696e6720617070726f76616c2073746174757360008201527f20666f722073656c660000000000000000000000000000000000000000000000602082015250565b7f455243313135353a206163636f756e747320616e6420696473206c656e67746860008201527f206d69736d617463680000000000000000000000000000000000000000000000602082015250565b7f455243313135353a2069647320616e6420616d6f756e7473206c656e6774682060008201527f6d69736d61746368000000000000000000000000000000000000000000000000602082015250565b7f455243313135353a206d696e7420746f20746865207a65726f2061646472657360008201527f7300000000000000000000000000000000000000000000000000000000000000602082015250565b7f5573657220646f65736e2774206f776e2074686973204e465400000000000000600082015250565b600060443d1015613eb457613f37565b613ebc61341f565b60043d036004823e80513d602482011167ffffffffffffffff82111715613ee4575050613f37565b808201805167ffffffffffffffff811115613f025750505050613f37565b80602083010160043d038501811115613f1f575050505050613f37565b613f2e8260200185018661385d565b82955050505050505b90565b613f4381613775565b8114613f4e57600080fd5b50565b613f5a81613787565b8114613f6557600080fd5b50565b613f7181613793565b8114613f7c57600080fd5b50565b613f88816137df565b8114613f9357600080fd5b5056fea2646970667358221220d5ee0d48a6a19aa21995bd96060f54fecf89ce0f5a37cc7ac4e25ad7aa0f876364736f6c63430008040033",
  "linkReferences": {},
  "deployedLinkReferences": {}
}