{
  "_format": "hh-sol-artifact-1",
  "contractName": "FlappyApeNFT",
  "sourceName": "contracts/FlappyApeNFT.sol",
  "abi": [
    {
      "inputs": [
        {
          "internalType": "address",
          "name": "coinAddress",
          "type": "address"
        }
      ],
      "stateMutability": "nonpayable",
      "type": "constructor"
    },
    {
      "anonymous": false,
      "inputs": [
        {
          "indexed": true,
          "internalType": "address",
          "name": "account",
          "type": "address"
        },
        {
          "indexed": true,
          "internalType": "address",
          "name": "operator",
          "type": "address"
        },
        {
          "indexed": false,
          "internalType": "bool",
          "name": "approved",
          "type": "bool"
        }
      ],
      "name": "ApprovalForAll",
      "type": "event"
    },
    {
      "anonymous": false,
      "inputs": [
        {
          "indexed": true,
          "internalType": "address",
          "name": "previousOwner",
          "type": "address"
        },
        {
          "indexed": true,
          "internalType": "address",
          "name": "newOwner",
          "type": "address"
        }
      ],
      "name": "OwnershipTransferred",
      "type": "event"
    },
    {
      "anonymous": false,
      "inputs": [
        {
          "indexed": true,
          "internalType": "address",
          "name": "operator",
          "type": "address"
        },
        {
          "indexed": true,
          "internalType": "address",
          "name": "from",
          "type": "address"
        },
        {
          "indexed": true,
          "internalType": "address",
          "name": "to",
          "type": "address"
        },
        {
          "indexed": false,
          "internalType": "uint256[]",
          "name": "ids",
          "type": "uint256[]"
        },
        {
          "indexed": false,
          "internalType": "uint256[]",
          "name": "values",
          "type": "uint256[]"
        }
      ],
      "name": "TransferBatch",
      "type": "event"
    },
    {
      "anonymous": false,
      "inputs": [
        {
          "indexed": true,
          "internalType": "address",
          "name": "operator",
          "type": "address"
        },
        {
          "indexed": true,
          "internalType": "address",
          "name": "from",
          "type": "address"
        },
        {
          "indexed": true,
          "internalType": "address",
          "name": "to",
          "type": "address"
        },
        {
          "indexed": false,
          "internalType": "uint256",
          "name": "id",
          "type": "uint256"
        },
        {
          "indexed": false,
          "internalType": "uint256",
          "name": "value",
          "type": "uint256"
        }
      ],
      "name": "TransferSingle",
      "type": "event"
    },
    {
      "anonymous": false,
      "inputs": [
        {
          "indexed": false,
          "internalType": "string",
          "name": "value",
          "type": "string"
        },
        {
          "indexed": true,
          "internalType": "uint256",
          "name": "id",
          "type": "uint256"
        }
      ],
      "name": "URI",
      "type": "event"
    },
    {
      "inputs": [],
      "name": "UPGRADE_PRICE",
      "outputs": [
        {
          "internalType": "uint256",
          "name": "",
          "type": "uint256"
        }
      ],
      "stateMutability": "view",
      "type": "function"
    },
    {
      "inputs": [
        {
          "internalType": "address",
          "name": "account",
          "type": "address"
        },
        {
          "internalType": "uint256",
          "name": "id",
          "type": "uint256"
        }
      ],
      "name": "balanceOf",
      "outputs": [
        {
          "internalType": "uint256",
          "name": "",
          "type": "uint256"
        }
      ],
      "stateMutability": "view",
      "type": "function"
    },
    {
      "inputs": [
        {
          "internalType": "address[]",
          "name": "accounts",
          "type": "address[]"
        },
        {
          "internalType": "uint256[]",
          "name": "ids",
          "type": "uint256[]"
        }
      ],
      "name": "balanceOfBatch",
      "outputs": [
        {
          "internalType": "uint256[]",
          "name": "",
          "type": "uint256[]"
        }
      ],
      "stateMutability": "view",
      "type": "function"
    },
    {
      "inputs": [
        {
          "internalType": "address",
          "name": "account",
          "type": "address"
        },
        {
          "internalType": "uint256",
          "name": "id",
          "type": "uint256"
        },
        {
          "internalType": "uint256",
          "name": "value",
          "type": "uint256"
        }
      ],
      "name": "burn",
      "outputs": [],
      "stateMutability": "nonpayable",
      "type": "function"
    },
    {
      "inputs": [
        {
          "internalType": "address",
          "name": "account",
          "type": "address"
        },
        {
          "internalType": "uint256[]",
          "name": "ids",
          "type": "uint256[]"
        },
        {
          "internalType": "uint256[]",
          "name": "values",
          "type": "uint256[]"
        }
      ],
      "name": "burnBatch",
      "outputs": [],
      "stateMutability": "nonpayable",
      "type": "function"
    },
    {
      "inputs": [
        {
          "internalType": "address",
          "name": "account",
          "type": "address"
        },
        {
          "internalType": "address",
          "name": "operator",
          "type": "address"
        }
      ],
      "name": "isApprovedForAll",
      "outputs": [
        {
          "internalType": "bool",
          "name": "",
          "type": "bool"
        }
      ],
      "stateMutability": "view",
      "type": "function"
    },
    {
      "inputs": [
        {
          "internalType": "uint256",
          "name": "amount",
          "type": "uint256"
        },
        {
          "internalType": "uint256",
          "name": "nftId",
          "type": "uint256"
        },
        {
          "internalType": "address",
          "name": "account",
          "type": "address"
        }
      ],
      "name": "levelBonus",
      "outputs": [],
      "stateMutability": "nonpayable",
      "type": "function"
    },
    {
      "inputs": [],
      "name": "owner",
      "outputs": [
        {
          "internalType": "address",
          "name": "",
          "type": "address"
        }
      ],
      "stateMutability": "view",
      "type": "function"
    },
    {
      "inputs": [],
      "name": "renounceOwnership",
      "outputs": [],
      "stateMutability": "nonpayable",
      "type": "function"
    },
    {
      "inputs": [
        {
          "internalType": "address",
          "name": "from",
          "type": "address"
        },
        {
          "internalType": "address",
          "name": "to",
          "type": "address"
        },
        {
          "internalType": "uint256[]",
          "name": "ids",
          "type": "uint256[]"
        },
        {
          "internalType": "uint256[]",
          "name": "amounts",
          "type": "uint256[]"
        },
        {
          "internalType": "bytes",
          "name": "data",
          "type": "bytes"
        }
      ],
      "name": "safeBatchTransferFrom",
      "outputs": [],
      "stateMutability": "nonpayable",
      "type": "function"
    },
    {
      "inputs": [
        {
          "internalType": "address",
          "name": "from",
          "type": "address"
        },
        {
          "internalType": "address",
          "name": "to",
          "type": "address"
        },
        {
          "internalType": "uint256",
          "name": "id",
          "type": "uint256"
        },
        {
          "internalType": "uint256",
          "name": "amount",
          "type": "uint256"
        },
        {
          "internalType": "bytes",
          "name": "data",
          "type": "bytes"
        }
      ],
      "name": "safeTransferFrom",
      "outputs": [],
      "stateMutability": "nonpayable",
      "type": "function"
    },
    {
      "inputs": [
        {
          "internalType": "address",
          "name": "operator",
          "type": "address"
        },
        {
          "internalType": "bool",
          "name": "approved",
          "type": "bool"
        }
      ],
      "name": "setApprovalForAll",
      "outputs": [],
      "stateMutability": "nonpayable",
      "type": "function"
    },
    {
      "inputs": [
        {
          "internalType": "string",
          "name": "newuri",
          "type": "string"
        }
      ],
      "name": "setURI",
      "outputs": [],
      "stateMutability": "nonpayable",
      "type": "function"
    },
    {
      "inputs": [],
      "name": "start",
      "outputs": [],
      "stateMutability": "payable",
      "type": "function"
    },
    {
      "inputs": [
        {
          "internalType": "bytes4",
          "name": "interfaceId",
          "type": "bytes4"
        }
      ],
      "name": "supportsInterface",
      "outputs": [
        {
          "internalType": "bool",
          "name": "",
          "type": "bool"
        }
      ],
      "stateMutability": "view",
      "type": "function"
    },
    {
      "inputs": [
        {
          "internalType": "address",
          "name": "newOwner",
          "type": "address"
        }
      ],
      "name": "transferOwnership",
      "outputs": [],
      "stateMutability": "nonpayable",
      "type": "function"
    },
    {
      "inputs": [
        {
          "internalType": "uint256",
          "name": "currentNftId",
          "type": "uint256"
        },
        {
          "internalType": "uint256",
          "name": "upgradeNftId",
          "type": "uint256"
        }
      ],
      "name": "upgrade",
      "outputs": [],
      "stateMutability": "nonpayable",
      "type": "function"
    },
    {
      "inputs": [
        {
          "internalType": "uint256",
          "name": "",
          "type": "uint256"
        }
      ],
      "name": "uri",
      "outputs": [
        {
          "internalType": "string",
          "name": "",
          "type": "string"
        }
      ],
      "stateMutability": "view",
      "type": "function"
    }
  ],
  "bytecode": "0x60806040523480156200001157600080fd5b50604051620044c2380380620044c2833981810160405281019062000037919062000298565b6040518060400160405280602081526020017f68747470733a2f2f666c617070796170652e696f2f746f6b656e732f7b69647d8152506200007e81620000e760201b60201c565b506200009f620000936200010360201b60201c565b6200010b60201b60201c565b80600460006101000a81548173ffffffffffffffffffffffffffffffffffffffff021916908373ffffffffffffffffffffffffffffffffffffffff1602179055505062000377565b8060029080519060200190620000ff929190620001d1565b5050565b600033905090565b6000600360009054906101000a900473ffffffffffffffffffffffffffffffffffffffff16905081600360006101000a81548173ffffffffffffffffffffffffffffffffffffffff021916908373ffffffffffffffffffffffffffffffffffffffff1602179055508173ffffffffffffffffffffffffffffffffffffffff168173ffffffffffffffffffffffffffffffffffffffff167f8be0079c531659141344cd1fd0a4f28419497f9722a3daafe3b4186f6b6457e060405160405180910390a35050565b828054620001df90620002f8565b90600052602060002090601f0160209004810192826200020357600085556200024f565b82601f106200021e57805160ff19168380011785556200024f565b828001600101855582156200024f579182015b828111156200024e57825182559160200191906001019062000231565b5b5090506200025e919062000262565b5090565b5b808211156200027d57600081600090555060010162000263565b5090565b60008151905062000292816200035d565b92915050565b600060208284031215620002ab57600080fd5b6000620002bb8482850162000281565b91505092915050565b6000620002d182620002d8565b9050919050565b600073ffffffffffffffffffffffffffffffffffffffff82169050919050565b600060028204905060018216806200031157607f821691505b602082108114156200032857620003276200032e565b5b50919050565b7f4e487b7100000000000000000000000000000000000000000000000000000000600052602260045260246000fd5b6200036881620002c4565b81146200037457600080fd5b50565b61413b80620003876000396000f3fe6080604052600436106101085760003560e01c8063715018a611610095578063e985e9c511610064578063e985e9c514610343578063f242432a14610380578063f2fde38b146103a9578063f5298aca146103d2578063ff688979146103fb57610108565b8063715018a6146102ce5780638da5cb5b146102e5578063a22cb46514610310578063be9a65551461033957610108565b80632eb2c2d6116100dc5780632eb2c2d6146101ed578063451450ec1461021657806346a6cc8b1461023f5780634e1273f4146102685780636b20c454146102a557610108565b8062fdd58e1461010d57806301ffc9a71461014a57806302fe5305146101875780630e89341c146101b0575b600080fd5b34801561011957600080fd5b50610134600480360381019061012f9190612b3b565b610426565b604051610141919061359e565b60405180910390f35b34801561015657600080fd5b50610171600480360381019061016c9190612c32565b6104ef565b60405161017e91906132e1565b60405180910390f35b34801561019357600080fd5b506101ae60048036038101906101a99190612c84565b6105d1565b005b3480156101bc57600080fd5b506101d760048036038101906101d29190612cc5565b610659565b6040516101e491906132fc565b60405180910390f35b3480156101f957600080fd5b50610214600480360381019061020f9190612932565b6106ed565b005b34801561022257600080fd5b5061023d60048036038101906102389190612d17565b61078e565b005b34801561024b57600080fd5b5061026660048036038101906102619190612d53565b6109e2565b005b34801561027457600080fd5b5061028f600480360381019061028a9190612bc6565b610b67565b60405161029c9190613288565b60405180910390f35b3480156102b157600080fd5b506102cc60048036038101906102c79190612a80565b610d18565b005b3480156102da57600080fd5b506102e3610db5565b005b3480156102f157600080fd5b506102fa610e3d565b6040516103079190613182565b60405180910390f35b34801561031c57600080fd5b5061033760048036038101906103329190612aff565b610e67565b005b610341610e7d565b005b34801561034f57600080fd5b5061036a600480360381019061036591906128f6565b610ee0565b60405161037791906132e1565b60405180910390f35b34801561038c57600080fd5b506103a760048036038101906103a291906129f1565b610f74565b005b3480156103b557600080fd5b506103d060048036038101906103cb91906128cd565b611015565b005b3480156103de57600080fd5b506103f960048036038101906103f49190612b77565b61110d565b005b34801561040757600080fd5b506104106111aa565b60405161041d919061359e565b60405180910390f35b60008073ffffffffffffffffffffffffffffffffffffffff168373ffffffffffffffffffffffffffffffffffffffff161415610497576040517f08c379a000000000000000000000000000000000000000000000000000000000815260040161048e9061335e565b60405180910390fd5b60008083815260200190815260200160002060008473ffffffffffffffffffffffffffffffffffffffff1673ffffffffffffffffffffffffffffffffffffffff16815260200190815260200160002054905092915050565b60007fd9b67a26000000000000000000000000000000000000000000000000000000007bffffffffffffffffffffffffffffffffffffffffffffffffffffffff1916827bffffffffffffffffffffffffffffffffffffffffffffffffffffffff191614806105ba57507f0e89341c000000000000000000000000000000000000000000000000000000007bffffffffffffffffffffffffffffffffffffffffffffffffffffffff1916827bffffffffffffffffffffffffffffffffffffffffffffffffffffffff1916145b806105ca57506105c9826111b0565b5b9050919050565b6105d961121a565b73ffffffffffffffffffffffffffffffffffffffff166105f7610e3d565b73ffffffffffffffffffffffffffffffffffffffff161461064d576040517f08c379a00000000000000000000000000000000000000000000000000000000081526004016106449061347e565b60405180910390fd5b61065681611222565b50565b606060028054610668906138fd565b80601f0160208091040260200160405190810160405280929190818152602001828054610694906138fd565b80156106e15780601f106106b6576101008083540402835291602001916106e1565b820191906000526020600020905b8154815290600101906020018083116106c457829003601f168201915b50505050509050919050565b6106f561121a565b73ffffffffffffffffffffffffffffffffffffffff168573ffffffffffffffffffffffffffffffffffffffff16148061073b575061073a8561073561121a565b610ee0565b5b61077a576040517f08c379a0000000000000000000000000000000000000000000000000000000008152600401610771906133fe565b60405180910390fd5b610787858585858561123c565b5050505050565b8082106107d0576040517f08c379a00000000000000000000000000000000000000000000000000000000081526004016107c79061349e565b60405180910390fd5b60006107dc3384610426565b1161081c576040517f08c379a00000000000000000000000000000000000000000000000000000000081526004016108139061345e565b60405180910390fd5b6000828261082a9190613813565b6103e861083791906137b9565b905080600460009054906101000a900473ffffffffffffffffffffffffffffffffffffffff1673ffffffffffffffffffffffffffffffffffffffff166370a08231336040518263ffffffff1660e01b81526004016108959190613182565b60206040518083038186803b1580156108ad57600080fd5b505afa1580156108c1573d6000803e3d6000fd5b505050506040513d601f19601f820116820180604052508101906108e59190612cee565b1015610926576040517f08c379a000000000000000000000000000000000000000000000000000000000815260040161091d906134de565b60405180910390fd5b600460009054906101000a900473ffffffffffffffffffffffffffffffffffffffff1673ffffffffffffffffffffffffffffffffffffffff166379cc679033836040518363ffffffff1660e01b815260040161098392919061325f565b600060405180830381600087803b15801561099d57600080fd5b505af11580156109b1573d6000803e3d6000fd5b505050506109c13384600161159c565b6109dd33836001604051806020016040528060008152506117b9565b505050565b6109ea61121a565b73ffffffffffffffffffffffffffffffffffffffff16610a08610e3d565b73ffffffffffffffffffffffffffffffffffffffff1614610a5e576040517f08c379a0000000000000000000000000000000000000000000000000000000008152600401610a559061347e565b60405180910390fd5b6000610a6a8284610426565b11610aaa576040517f08c379a0000000000000000000000000000000000000000000000000000000008152600401610aa19061357e565b60405180910390fd5b6000600a83610ab99190613788565b6001610ac59190613732565b84610ad091906137b9565b9050600460009054906101000a900473ffffffffffffffffffffffffffffffffffffffff1673ffffffffffffffffffffffffffffffffffffffff166340c10f1983836040518363ffffffff1660e01b8152600401610b2f92919061325f565b600060405180830381600087803b158015610b4957600080fd5b505af1158015610b5d573d6000803e3d6000fd5b5050505050505050565b60608151835114610bad576040517f08c379a0000000000000000000000000000000000000000000000000000000008152600401610ba49061351e565b60405180910390fd5b6000835167ffffffffffffffff811115610bf0577f4e487b7100000000000000000000000000000000000000000000000000000000600052604160045260246000fd5b604051908082528060200260200182016040528015610c1e5781602001602082028036833780820191505090505b50905060005b8451811015610d0d57610cb7858281518110610c69577f4e487b7100000000000000000000000000000000000000000000000000000000600052603260045260246000fd5b6020026020010151858381518110610caa577f4e487b7100000000000000000000000000000000000000000000000000000000600052603260045260246000fd5b6020026020010151610426565b828281518110610cf0577f4e487b7100000000000000000000000000000000000000000000000000000000600052603260045260246000fd5b60200260200101818152505080610d0690613960565b9050610c24565b508091505092915050565b610d2061121a565b73ffffffffffffffffffffffffffffffffffffffff168373ffffffffffffffffffffffffffffffffffffffff161480610d665750610d6583610d6061121a565b610ee0565b5b610da5576040517f08c379a0000000000000000000000000000000000000000000000000000000008152600401610d9c906133be565b60405180910390fd5b610db083838361194f565b505050565b610dbd61121a565b73ffffffffffffffffffffffffffffffffffffffff16610ddb610e3d565b73ffffffffffffffffffffffffffffffffffffffff1614610e31576040517f08c379a0000000000000000000000000000000000000000000000000000000008152600401610e289061347e565b60405180910390fd5b610e3b6000611c4c565b565b6000600360009054906101000a900473ffffffffffffffffffffffffffffffffffffffff16905090565b610e79610e7261121a565b8383611d12565b5050565b600a341015610ec1576040517f08c379a0000000000000000000000000000000000000000000000000000000008152600401610eb8906134be565b60405180910390fd5b610ede3360006001604051806020016040528060008152506117b9565b565b6000600160008473ffffffffffffffffffffffffffffffffffffffff1673ffffffffffffffffffffffffffffffffffffffff16815260200190815260200160002060008373ffffffffffffffffffffffffffffffffffffffff1673ffffffffffffffffffffffffffffffffffffffff16815260200190815260200160002060009054906101000a900460ff16905092915050565b610f7c61121a565b73ffffffffffffffffffffffffffffffffffffffff168573ffffffffffffffffffffffffffffffffffffffff161480610fc25750610fc185610fbc61121a565b610ee0565b5b611001576040517f08c379a0000000000000000000000000000000000000000000000000000000008152600401610ff8906133be565b60405180910390fd5b61100e8585858585611e7f565b5050505050565b61101d61121a565b73ffffffffffffffffffffffffffffffffffffffff1661103b610e3d565b73ffffffffffffffffffffffffffffffffffffffff1614611091576040517f08c379a00000000000000000000000000000000000000000000000000000000081526004016110889061347e565b60405180910390fd5b600073ffffffffffffffffffffffffffffffffffffffff168173ffffffffffffffffffffffffffffffffffffffff161415611101576040517f08c379a00000000000000000000000000000000000000000000000000000000081526004016110f89061337e565b60405180910390fd5b61110a81611c4c565b50565b61111561121a565b73ffffffffffffffffffffffffffffffffffffffff168373ffffffffffffffffffffffffffffffffffffffff16148061115b575061115a8361115561121a565b610ee0565b5b61119a576040517f08c379a0000000000000000000000000000000000000000000000000000000008152600401611191906133be565b60405180910390fd5b6111a583838361159c565b505050565b6103e881565b60007f01ffc9a7000000000000000000000000000000000000000000000000000000007bffffffffffffffffffffffffffffffffffffffffffffffffffffffff1916827bffffffffffffffffffffffffffffffffffffffffffffffffffffffff1916149050919050565b600033905090565b80600290805190602001906112389291906125b0565b5050565b8151835114611280576040517f08c379a00000000000000000000000000000000000000000000000000000000081526004016112779061353e565b60405180910390fd5b600073ffffffffffffffffffffffffffffffffffffffff168473ffffffffffffffffffffffffffffffffffffffff1614156112f0576040517f08c379a00000000000000000000000000000000000000000000000000000000081526004016112e7906133de565b60405180910390fd5b60006112fa61121a565b905061130a818787878787612101565b60005b8451811015611507576000858281518110611351577f4e487b7100000000000000000000000000000000000000000000000000000000600052603260045260246000fd5b602002602001015190506000858381518110611396577f4e487b7100000000000000000000000000000000000000000000000000000000600052603260045260246000fd5b60200260200101519050600080600084815260200190815260200160002060008b73ffffffffffffffffffffffffffffffffffffffff1673ffffffffffffffffffffffffffffffffffffffff16815260200190815260200160002054905081811015611437576040517f08c379a000000000000000000000000000000000000000000000000000000000815260040161142e9061343e565b60405180910390fd5b81810360008085815260200190815260200160002060008c73ffffffffffffffffffffffffffffffffffffffff1673ffffffffffffffffffffffffffffffffffffffff168152602001908152602001600020819055508160008085815260200190815260200160002060008b73ffffffffffffffffffffffffffffffffffffffff1673ffffffffffffffffffffffffffffffffffffffff16815260200190815260200160002060008282546114ec9190613732565b925050819055505050508061150090613960565b905061130d565b508473ffffffffffffffffffffffffffffffffffffffff168673ffffffffffffffffffffffffffffffffffffffff168273ffffffffffffffffffffffffffffffffffffffff167f4a39dc06d4c0dbc64b70af90fd698a233a518aa5d07e595d983b8c0526c8f7fb878760405161157e9291906132aa565b60405180910390a4611594818787878787612109565b505050505050565b600073ffffffffffffffffffffffffffffffffffffffff168373ffffffffffffffffffffffffffffffffffffffff16141561160c576040517f08c379a00000000000000000000000000000000000000000000000000000000081526004016116039061341e565b60405180910390fd5b600061161661121a565b905061164681856000611628876122f0565b611631876122f0565b60405180602001604052806000815250612101565b600080600085815260200190815260200160002060008673ffffffffffffffffffffffffffffffffffffffff1673ffffffffffffffffffffffffffffffffffffffff168152602001908152602001600020549050828110156116dd576040517f08c379a00000000000000000000000000000000000000000000000000000000081526004016116d49061339e565b60405180910390fd5b82810360008086815260200190815260200160002060008773ffffffffffffffffffffffffffffffffffffffff1673ffffffffffffffffffffffffffffffffffffffff16815260200190815260200160002081905550600073ffffffffffffffffffffffffffffffffffffffff168573ffffffffffffffffffffffffffffffffffffffff168373ffffffffffffffffffffffffffffffffffffffff167fc3d58168c5ae7397731d063d5bbf3d657854427343f4c083240f7aacaa2d0f6287876040516117aa9291906135b9565b60405180910390a45050505050565b600073ffffffffffffffffffffffffffffffffffffffff168473ffffffffffffffffffffffffffffffffffffffff161415611829576040517f08c379a00000000000000000000000000000000000000000000000000000000081526004016118209061355e565b60405180910390fd5b600061183361121a565b905061185481600087611845886122f0565b61184e886122f0565b87612101565b8260008086815260200190815260200160002060008773ffffffffffffffffffffffffffffffffffffffff1673ffffffffffffffffffffffffffffffffffffffff16815260200190815260200160002060008282546118b39190613732565b925050819055508473ffffffffffffffffffffffffffffffffffffffff16600073ffffffffffffffffffffffffffffffffffffffff168273ffffffffffffffffffffffffffffffffffffffff167fc3d58168c5ae7397731d063d5bbf3d657854427343f4c083240f7aacaa2d0f6287876040516119319291906135b9565b60405180910390a4611948816000878787876123b6565b5050505050565b600073ffffffffffffffffffffffffffffffffffffffff168373ffffffffffffffffffffffffffffffffffffffff1614156119bf576040517f08c379a00000000000000000000000000000000000000000000000000000000081526004016119b69061341e565b60405180910390fd5b8051825114611a03576040517f08c379a00000000000000000000000000000000000000000000000000000000081526004016119fa9061353e565b60405180910390fd5b6000611a0d61121a565b9050611a2d81856000868660405180602001604052806000815250612101565b60005b8351811015611bc6576000848281518110611a74577f4e487b7100000000000000000000000000000000000000000000000000000000600052603260045260246000fd5b602002602001015190506000848381518110611ab9577f4e487b7100000000000000000000000000000000000000000000000000000000600052603260045260246000fd5b60200260200101519050600080600084815260200190815260200160002060008973ffffffffffffffffffffffffffffffffffffffff1673ffffffffffffffffffffffffffffffffffffffff16815260200190815260200160002054905081811015611b5a576040517f08c379a0000000000000000000000000000000000000000000000000000000008152600401611b519061339e565b60405180910390fd5b81810360008085815260200190815260200160002060008a73ffffffffffffffffffffffffffffffffffffffff1673ffffffffffffffffffffffffffffffffffffffff168152602001908152602001600020819055505050508080611bbe90613960565b915050611a30565b50600073ffffffffffffffffffffffffffffffffffffffff168473ffffffffffffffffffffffffffffffffffffffff168273ffffffffffffffffffffffffffffffffffffffff167f4a39dc06d4c0dbc64b70af90fd698a233a518aa5d07e595d983b8c0526c8f7fb8686604051611c3e9291906132aa565b60405180910390a450505050565b6000600360009054906101000a900473ffffffffffffffffffffffffffffffffffffffff16905081600360006101000a81548173ffffffffffffffffffffffffffffffffffffffff021916908373ffffffffffffffffffffffffffffffffffffffff1602179055508173ffffffffffffffffffffffffffffffffffffffff168173ffffffffffffffffffffffffffffffffffffffff167f8be0079c531659141344cd1fd0a4f28419497f9722a3daafe3b4186f6b6457e060405160405180910390a35050565b8173ffffffffffffffffffffffffffffffffffffffff168373ffffffffffffffffffffffffffffffffffffffff161415611d81576040517f08c379a0000000000000000000000000000000000000000000000000000000008152600401611d78906134fe565b60405180910390fd5b80600160008573ffffffffffffffffffffffffffffffffffffffff1673ffffffffffffffffffffffffffffffffffffffff16815260200190815260200160002060008473ffffffffffffffffffffffffffffffffffffffff1673ffffffffffffffffffffffffffffffffffffffff16815260200190815260200160002060006101000a81548160ff0219169083151502179055508173ffffffffffffffffffffffffffffffffffffffff168373ffffffffffffffffffffffffffffffffffffffff167f17307eab39ab6107e8899845ad3d59bd9653f200f220920489ca2b5937696c3183604051611e7291906132e1565b60405180910390a3505050565b600073ffffffffffffffffffffffffffffffffffffffff168473ffffffffffffffffffffffffffffffffffffffff161415611eef576040517f08c379a0000000000000000000000000000000000000000000000000000000008152600401611ee6906133de565b60405180910390fd5b6000611ef961121a565b9050611f19818787611f0a886122f0565b611f13886122f0565b87612101565b600080600086815260200190815260200160002060008873ffffffffffffffffffffffffffffffffffffffff1673ffffffffffffffffffffffffffffffffffffffff16815260200190815260200160002054905083811015611fb0576040517f08c379a0000000000000000000000000000000000000000000000000000000008152600401611fa79061343e565b60405180910390fd5b83810360008087815260200190815260200160002060008973ffffffffffffffffffffffffffffffffffffffff1673ffffffffffffffffffffffffffffffffffffffff168152602001908152602001600020819055508360008087815260200190815260200160002060008873ffffffffffffffffffffffffffffffffffffffff1673ffffffffffffffffffffffffffffffffffffffff16815260200190815260200160002060008282546120659190613732565b925050819055508573ffffffffffffffffffffffffffffffffffffffff168773ffffffffffffffffffffffffffffffffffffffff168373ffffffffffffffffffffffffffffffffffffffff167fc3d58168c5ae7397731d063d5bbf3d657854427343f4c083240f7aacaa2d0f6288886040516120e29291906135b9565b60405180910390a46120f88288888888886123b6565b50505050505050565b505050505050565b6121288473ffffffffffffffffffffffffffffffffffffffff1661259d565b156122e8578373ffffffffffffffffffffffffffffffffffffffff1663bc197c8187878686866040518663ffffffff1660e01b815260040161216e95949392919061319d565b602060405180830381600087803b15801561218857600080fd5b505af19250505080156121b957506040513d601f19601f820116820180604052508101906121b69190612c5b565b60015b61225f576121c5613a65565b806308c379a0141561222257506121da614013565b806121e55750612224565b806040517f08c379a000000000000000000000000000000000000000000000000000000000815260040161221991906132fc565b60405180910390fd5b505b6040517f08c379a00000000000000000000000000000000000000000000000000000000081526004016122569061331e565b60405180910390fd5b63bc197c8160e01b7bffffffffffffffffffffffffffffffffffffffffffffffffffffffff1916817bffffffffffffffffffffffffffffffffffffffffffffffffffffffff1916146122e6576040517f08c379a00000000000000000000000000000000000000000000000000000000081526004016122dd9061333e565b60405180910390fd5b505b505050505050565b60606000600167ffffffffffffffff811115612335577f4e487b7100000000000000000000000000000000000000000000000000000000600052604160045260246000fd5b6040519080825280602002602001820160405280156123635781602001602082028036833780820191505090505b50905082816000815181106123a1577f4e487b7100000000000000000000000000000000000000000000000000000000600052603260045260246000fd5b60200260200101818152505080915050919050565b6123d58473ffffffffffffffffffffffffffffffffffffffff1661259d565b15612595578373ffffffffffffffffffffffffffffffffffffffff1663f23a6e6187878686866040518663ffffffff1660e01b815260040161241b959493929190613205565b602060405180830381600087803b15801561243557600080fd5b505af192505050801561246657506040513d601f19601f820116820180604052508101906124639190612c5b565b60015b61250c57612472613a65565b806308c379a014156124cf5750612487614013565b8061249257506124d1565b806040517f08c379a00000000000000000000000000000000000000000000000000000000081526004016124c691906132fc565b60405180910390fd5b505b6040517f08c379a00000000000000000000000000000000000000000000000000000000081526004016125039061331e565b60405180910390fd5b63f23a6e6160e01b7bffffffffffffffffffffffffffffffffffffffffffffffffffffffff1916817bffffffffffffffffffffffffffffffffffffffffffffffffffffffff191614612593576040517f08c379a000000000000000000000000000000000000000000000000000000000815260040161258a9061333e565b60405180910390fd5b505b505050505050565b600080823b905060008111915050919050565b8280546125bc906138fd565b90600052602060002090601f0160209004810192826125de5760008555612625565b82601f106125f757805160ff1916838001178555612625565b82800160010185558215612625579182015b82811115612624578251825591602001919060010190612609565b5b5090506126329190612636565b5090565b5b8082111561264f576000816000905550600101612637565b5090565b600061266661266184613607565b6135e2565b9050808382526020820190508285602086028201111561268557600080fd5b60005b858110156126b5578161269b88826127a7565b845260208401935060208301925050600181019050612688565b5050509392505050565b60006126d26126cd84613633565b6135e2565b905080838252602082019050828560208602820111156126f157600080fd5b60005b85811015612721578161270788826128a3565b8452602084019350602083019250506001810190506126f4565b5050509392505050565b600061273e6127398461365f565b6135e2565b90508281526020810184848401111561275657600080fd5b6127618482856138bb565b509392505050565b600061277c61277784613690565b6135e2565b90508281526020810184848401111561279457600080fd5b61279f8482856138bb565b509392505050565b6000813590506127b6816140a9565b92915050565b600082601f8301126127cd57600080fd5b81356127dd848260208601612653565b91505092915050565b600082601f8301126127f757600080fd5b81356128078482602086016126bf565b91505092915050565b60008135905061281f816140c0565b92915050565b600081359050612834816140d7565b92915050565b600081519050612849816140d7565b92915050565b600082601f83011261286057600080fd5b813561287084826020860161272b565b91505092915050565b600082601f83011261288a57600080fd5b813561289a848260208601612769565b91505092915050565b6000813590506128b2816140ee565b92915050565b6000815190506128c7816140ee565b92915050565b6000602082840312156128df57600080fd5b60006128ed848285016127a7565b91505092915050565b6000806040838503121561290957600080fd5b6000612917858286016127a7565b9250506020612928858286016127a7565b9150509250929050565b600080600080600060a0868803121561294a57600080fd5b6000612958888289016127a7565b9550506020612969888289016127a7565b945050604086013567ffffffffffffffff81111561298657600080fd5b612992888289016127e6565b935050606086013567ffffffffffffffff8111156129af57600080fd5b6129bb888289016127e6565b925050608086013567ffffffffffffffff8111156129d857600080fd5b6129e48882890161284f565b9150509295509295909350565b600080600080600060a08688031215612a0957600080fd5b6000612a17888289016127a7565b9550506020612a28888289016127a7565b9450506040612a39888289016128a3565b9350506060612a4a888289016128a3565b925050608086013567ffffffffffffffff811115612a6757600080fd5b612a738882890161284f565b9150509295509295909350565b600080600060608486031215612a9557600080fd5b6000612aa3868287016127a7565b935050602084013567ffffffffffffffff811115612ac057600080fd5b612acc868287016127e6565b925050604084013567ffffffffffffffff811115612ae957600080fd5b612af5868287016127e6565b9150509250925092565b60008060408385031215612b1257600080fd5b6000612b20858286016127a7565b9250506020612b3185828601612810565b9150509250929050565b60008060408385031215612b4e57600080fd5b6000612b5c858286016127a7565b9250506020612b6d858286016128a3565b9150509250929050565b600080600060608486031215612b8c57600080fd5b6000612b9a868287016127a7565b9350506020612bab868287016128a3565b9250506040612bbc868287016128a3565b9150509250925092565b60008060408385031215612bd957600080fd5b600083013567ffffffffffffffff811115612bf357600080fd5b612bff858286016127bc565b925050602083013567ffffffffffffffff811115612c1c57600080fd5b612c28858286016127e6565b9150509250929050565b600060208284031215612c4457600080fd5b6000612c5284828501612825565b91505092915050565b600060208284031215612c6d57600080fd5b6000612c7b8482850161283a565b91505092915050565b600060208284031215612c9657600080fd5b600082013567ffffffffffffffff811115612cb057600080fd5b612cbc84828501612879565b91505092915050565b600060208284031215612cd757600080fd5b6000612ce5848285016128a3565b91505092915050565b600060208284031215612d0057600080fd5b6000612d0e848285016128b8565b91505092915050565b60008060408385031215612d2a57600080fd5b6000612d38858286016128a3565b9250506020612d49858286016128a3565b9150509250929050565b600080600060608486031215612d6857600080fd5b6000612d76868287016128a3565b9350506020612d87868287016128a3565b9250506040612d98868287016127a7565b9150509250925092565b6000612dae8383613164565b60208301905092915050565b612dc381613847565b82525050565b6000612dd4826136d1565b612dde81856136ff565b9350612de9836136c1565b8060005b83811015612e1a578151612e018882612da2565b9750612e0c836136f2565b925050600181019050612ded565b5085935050505092915050565b612e3081613859565b82525050565b6000612e41826136dc565b612e4b8185613710565b9350612e5b8185602086016138ca565b612e6481613a87565b840191505092915050565b6000612e7a826136e7565b612e848185613721565b9350612e948185602086016138ca565b612e9d81613a87565b840191505092915050565b6000612eb5603483613721565b9150612ec082613aa5565b604082019050919050565b6000612ed8602883613721565b9150612ee382613af4565b604082019050919050565b6000612efb602b83613721565b9150612f0682613b43565b604082019050919050565b6000612f1e602683613721565b9150612f2982613b92565b604082019050919050565b6000612f41602483613721565b9150612f4c82613be1565b604082019050919050565b6000612f64602983613721565b9150612f6f82613c30565b604082019050919050565b6000612f87602583613721565b9150612f9282613c7f565b604082019050919050565b6000612faa603283613721565b9150612fb582613cce565b604082019050919050565b6000612fcd602383613721565b9150612fd882613d1d565b604082019050919050565b6000612ff0602a83613721565b9150612ffb82613d6c565b604082019050919050565b6000613013601a83613721565b915061301e82613dbb565b602082019050919050565b6000613036602083613721565b915061304182613de4565b602082019050919050565b6000613059601c83613721565b915061306482613e0d565b602082019050919050565b600061307c601383613721565b915061308782613e36565b602082019050919050565b600061309f602883613721565b91506130aa82613e5f565b604082019050919050565b60006130c2602983613721565b91506130cd82613eae565b604082019050919050565b60006130e5602983613721565b91506130f082613efd565b604082019050919050565b6000613108602883613721565b915061311382613f4c565b604082019050919050565b600061312b602183613721565b915061313682613f9b565b604082019050919050565b600061314e601983613721565b915061315982613fea565b602082019050919050565b61316d816138b1565b82525050565b61317c816138b1565b82525050565b60006020820190506131976000830184612dba565b92915050565b600060a0820190506131b26000830188612dba565b6131bf6020830187612dba565b81810360408301526131d18186612dc9565b905081810360608301526131e58185612dc9565b905081810360808301526131f98184612e36565b90509695505050505050565b600060a08201905061321a6000830188612dba565b6132276020830187612dba565b6132346040830186613173565b6132416060830185613173565b81810360808301526132538184612e36565b90509695505050505050565b60006040820190506132746000830185612dba565b6132816020830184613173565b9392505050565b600060208201905081810360008301526132a28184612dc9565b905092915050565b600060408201905081810360008301526132c48185612dc9565b905081810360208301526132d88184612dc9565b90509392505050565b60006020820190506132f66000830184612e27565b92915050565b600060208201905081810360008301526133168184612e6f565b905092915050565b6000602082019050818103600083015261333781612ea8565b9050919050565b6000602082019050818103600083015261335781612ecb565b9050919050565b6000602082019050818103600083015261337781612eee565b9050919050565b6000602082019050818103600083015261339781612f11565b9050919050565b600060208201905081810360008301526133b781612f34565b9050919050565b600060208201905081810360008301526133d781612f57565b9050919050565b600060208201905081810360008301526133f781612f7a565b9050919050565b6000602082019050818103600083015261341781612f9d565b9050919050565b6000602082019050818103600083015261343781612fc0565b9050919050565b6000602082019050818103600083015261345781612fe3565b9050919050565b6000602082019050818103600083015261347781613006565b9050919050565b6000602082019050818103600083015261349781613029565b9050919050565b600060208201905081810360008301526134b78161304c565b9050919050565b600060208201905081810360008301526134d78161306f565b9050919050565b600060208201905081810360008301526134f781613092565b9050919050565b60006020820190508181036000830152613517816130b5565b9050919050565b60006020820190508181036000830152613537816130d8565b9050919050565b60006020820190508181036000830152613557816130fb565b9050919050565b600060208201905081810360008301526135778161311e565b9050919050565b6000602082019050818103600083015261359781613141565b9050919050565b60006020820190506135b36000830184613173565b92915050565b60006040820190506135ce6000830185613173565b6135db6020830184613173565b9392505050565b60006135ec6135fd565b90506135f8828261392f565b919050565b6000604051905090565b600067ffffffffffffffff82111561362257613621613a36565b5b602082029050602081019050919050565b600067ffffffffffffffff82111561364e5761364d613a36565b5b602082029050602081019050919050565b600067ffffffffffffffff82111561367a57613679613a36565b5b61368382613a87565b9050602081019050919050565b600067ffffffffffffffff8211156136ab576136aa613a36565b5b6136b482613a87565b9050602081019050919050565b6000819050602082019050919050565b600081519050919050565b600081519050919050565b600081519050919050565b6000602082019050919050565b600082825260208201905092915050565b600082825260208201905092915050565b600082825260208201905092915050565b600061373d826138b1565b9150613748836138b1565b9250827fffffffffffffffffffffffffffffffffffffffffffffffffffffffffffffffff0382111561377d5761377c6139a9565b5b828201905092915050565b6000613793826138b1565b915061379e836138b1565b9250826137ae576137ad6139d8565b5b828204905092915050565b60006137c4826138b1565b91506137cf836138b1565b9250817fffffffffffffffffffffffffffffffffffffffffffffffffffffffffffffffff0483118215151615613808576138076139a9565b5b828202905092915050565b600061381e826138b1565b9150613829836138b1565b92508282101561383c5761383b6139a9565b5b828203905092915050565b600061385282613891565b9050919050565b60008115159050919050565b60007fffffffff0000000000000000000000000000000000000000000000000000000082169050919050565b600073ffffffffffffffffffffffffffffffffffffffff82169050919050565b6000819050919050565b82818337600083830152505050565b60005b838110156138e85780820151818401526020810190506138cd565b838111156138f7576000848401525b50505050565b6000600282049050600182168061391557607f821691505b6020821081141561392957613928613a07565b5b50919050565b61393882613a87565b810181811067ffffffffffffffff8211171561395757613956613a36565b5b80604052505050565b600061396b826138b1565b91507fffffffffffffffffffffffffffffffffffffffffffffffffffffffffffffffff82141561399e5761399d6139a9565b5b600182019050919050565b7f4e487b7100000000000000000000000000000000000000000000000000000000600052601160045260246000fd5b7f4e487b7100000000000000000000000000000000000000000000000000000000600052601260045260246000fd5b7f4e487b7100000000000000000000000000000000000000000000000000000000600052602260045260246000fd5b7f4e487b7100000000000000000000000000000000000000000000000000000000600052604160045260246000fd5b600060033d1115613a845760046000803e613a81600051613a98565b90505b90565b6000601f19601f8301169050919050565b60008160e01c9050919050565b7f455243313135353a207472616e7366657220746f206e6f6e204552433131353560008201527f526563656976657220696d706c656d656e746572000000000000000000000000602082015250565b7f455243313135353a204552433131353552656365697665722072656a6563746560008201527f6420746f6b656e73000000000000000000000000000000000000000000000000602082015250565b7f455243313135353a2062616c616e636520717565727920666f7220746865207a60008201527f65726f2061646472657373000000000000000000000000000000000000000000602082015250565b7f4f776e61626c653a206e6577206f776e657220697320746865207a65726f206160008201527f6464726573730000000000000000000000000000000000000000000000000000602082015250565b7f455243313135353a206275726e20616d6f756e7420657863656564732062616c60008201527f616e636500000000000000000000000000000000000000000000000000000000602082015250565b7f455243313135353a2063616c6c6572206973206e6f74206f776e6572206e6f7260008201527f20617070726f7665640000000000000000000000000000000000000000000000602082015250565b7f455243313135353a207472616e7366657220746f20746865207a65726f20616460008201527f6472657373000000000000000000000000000000000000000000000000000000602082015250565b7f455243313135353a207472616e736665722063616c6c6572206973206e6f742060008201527f6f776e6572206e6f7220617070726f7665640000000000000000000000000000602082015250565b7f455243313135353a206275726e2066726f6d20746865207a65726f206164647260008201527f6573730000000000000000000000000000000000000000000000000000000000602082015250565b7f455243313135353a20696e73756666696369656e742062616c616e636520666f60008201527f72207472616e7366657200000000000000000000000000000000000000000000602082015250565b7f5573657220646f65736e277420686176652074686973206e6674000000000000600082015250565b7f4f776e61626c653a2063616c6c6572206973206e6f7420746865206f776e6572600082015250565b7f557067726164652069642063616e277420626520736d616c6c65722100000000600082015250565b7f4e6f7420656e6f756768204554482073656e7400000000000000000000000000600082015250565b7f5573657220646f65736e2774206861766520656e6f75676820466c617070792060008201527f41706520436f696e000000000000000000000000000000000000000000000000602082015250565b7f455243313135353a2073657474696e6720617070726f76616c2073746174757360008201527f20666f722073656c660000000000000000000000000000000000000000000000602082015250565b7f455243313135353a206163636f756e747320616e6420696473206c656e67746860008201527f206d69736d617463680000000000000000000000000000000000000000000000602082015250565b7f455243313135353a2069647320616e6420616d6f756e7473206c656e6774682060008201527f6d69736d61746368000000000000000000000000000000000000000000000000602082015250565b7f455243313135353a206d696e7420746f20746865207a65726f2061646472657360008201527f7300000000000000000000000000000000000000000000000000000000000000602082015250565b7f5573657220646f65736e2774206f776e2074686973204e465400000000000000600082015250565b600060443d1015614023576140a6565b61402b6135fd565b60043d036004823e80513d602482011167ffffffffffffffff821117156140535750506140a6565b808201805167ffffffffffffffff81111561407157505050506140a6565b80602083010160043d03850181111561408e5750505050506140a6565b61409d8260200185018661392f565b82955050505050505b90565b6140b281613847565b81146140bd57600080fd5b50565b6140c981613859565b81146140d457600080fd5b50565b6140e081613865565b81146140eb57600080fd5b50565b6140f7816138b1565b811461410257600080fd5b5056fea264697066735822122081bd5c4c69d803f0df1f38f13044874560a3ff30e5428f289499acb3692ea6f964736f6c63430008040033",
  "linkReferences": {},
  "deployedLinkReferences": {}
}